:100000000C9446000C9465000C9465000C946500FB
:100010000C9465000C9465000C9465000C946500CC
:100020000C9465000C9465000C9465000C946500BC
:100030000C9465000C9465000C9465000C946500AC
:100040000C9465000C9465000C94B7030C94650047
:100050000C9465000C9465000C9465000C9465008C
:100060000C9465000C9465000C9465000C9465007C
:100070000C9465000C9465000C9465000C9465006C
:100080000C9465000C9465000C94650011241FBE4F
:10009000CFEFD0E1DEBFCDBF12E0A0E0B1E0EAEEED
:1000A000F7E000E00BBF02C007900D92A833B10744
:1000B000D9F712E0A8E3B2E001C01D92AB35B10759
:1000C000E1F70E949A020C94E4030C94000084B3BC
:1000D0008F7084BBAA9A93B3AA98AA9A83B3AA985A
:1000E00082958F70907F892B089525B32F70982F5C
:1000F000907F922B95BBAA9AAA988295807F282BF5
:1001000025BBAA9AAA98089580E098E40197F1F790
:1001100008950F931F9384B3876084BB84B3806F6B
:1001200084BBA898A998AA98AA9AAD9AAA9800E020
:1001300018E4C8010197F1F788E20E947500C80130
:100140000197F1F7A8988CE00E947500C80101970B
:10015000F1F7A89886E00E947500C8010197F1F7B1
:100160001F910F910895A898A99882E00E947500A8
:1001700080E098E40197F1F70895A898A99861584C
:1001800090E0019726E0880F991F2A95E1F7860FE6
:100190000E94750080E098E40197F1F70895A8980F
:1001A000A99881E00E94750080E098E40197F1F73A
:1001B0000895A89AA9980E94750080E098E4019794
:1001C000F1F708951F93CF93DF93EC0110E003C084
:1001D0000E94D9001F5FFE01E10FF11D808188237D
:1001E000B9F7DF91CF911F9108951F93CF93DF93BC
:1001F000EC0110E003C00E94D9001F5FFE01E10F77
:10020000F11D84918823B9F7DF91CF911F91089553
:10021000CF92DF92FF920F93DF93CF930F92CDB7E0
:10022000DEB7282F64E60E94E703382F822F0E9452
:10023000E703292F892F6AE00E94E703082F822F06
:100240000E94E7033F700F709F709983A89AA99846
:100250003323B9F0832F80630E94750080E098E417
:100260000197F1F7A89AA998802F80630E947500E2
:1002700080E098E40197F1F7A89AA99889818063B2
:1002800017C0F98080E3F82A002389F0802F80636B
:100290000E947500C12C38E4D32EC6010197F1F7F6
:1002A000A89AA9988F2D0E947500C60105C08F2DB0
:1002B0000E94750080E098E40197F1F70F90CF91CC
:1002C000DF910F91FF90DF90CF9008950F931F93D0
:1002D000CF93DF9380E091E00E94E20080E197E21B
:1002E00028EB30E0F9013197F1F70197D9F710E0E9
:1002F00000E0C8EBD0E0612F82E00E94BD008FEFEC
:100300000E94D9006BE082E00E94BD00802F0E9415
:10031000080185E20E94D90088EE93E0FE01319742
:10032000F1F70197D9F71F5F065F1B3021F780E1D6
:1003300097E228EB30E0F9013197F1F70197D9F70F
:100340000E94CF00DF91CF911F910F910895482F08
:10035000FB0180E002C011928F5F8417E0F30895E3
:10036000CF93DF930E94CF0080E191E00E94E200F2
:10037000C0E0D0E00BC06C2F82E00E94BD00FE0107
:10038000E65CFD4F80810E94D90021968091390260
:1003900090E08C179D077CF7DF91CF91089520E0C6
:1003A00030E041E050E068E12C5F3F4FCA01022E8F
:1003B00002C0880F991F0A94E2F7245030408095BC
:1003C00085BB862F8A95F1F793B39F709F30B1F06C
:1003D000A0E0B0E0FD01ED5DFD4F8081981751F484
:1003E000AA0FBB1FAA0FBB1FA20FB31FA95DBD4F52
:1003F0008C9108951196A430B10561F72F5F3F4F9E
:100400002430310589F680E008955D9BFECF8CB9DC
:100410000895FC0104C05D9BFECF31968CB98081AC
:100420008823C9F708955F9BFECF8CB108950E9481
:10043000CF0080E291E00E94E20083B113B8E9E2CC
:10044000F1E004C05D9BFECF31968CB9808188239A
:10045000C9F780E197E228EB30E0F9013197F1F735
:100460000197D9F70E94CF0081E391E00E94E2005A
:10047000EDE3F1E004C05D9BFECF31968CB9808145
:100480008823C9F780E197E228EB30E0F901319742
:10049000F1F70197D9F70E94CF0086E491E00E941E
:1004A000E200E2E5F1E004C05D9BFECF31968CB93D
:1004B00080818823C9F780E197E228EB30E0F901D9
:1004C0003197F1F70197D9F70E94CF008BE591E0C2
:1004D0000E94E200EAE6F1E004C05D9BFECF3196A7
:1004E0008CB980818823C9F780E197E228EB30E05E
:1004F000F9013197F1F70197D9F71D9A0E94CF00C2
:1005000085E791E00E94E20088E893E128EB30E083
:10051000F9013197F1F70197D9F70E94CF000895BB
:1005200087E089B91092900086E08093950088E971
:100530008AB90895EF92FF920F931F93CF93DF93A1
:100540008FE085BB80EF84BB13B880E282B9C59A87
:1005500087B387BB0E9489008CE791E00E94E2008C
:1005600061E082E00E94BD0083E891E00E94E20029
:1005700080E29EE428EB30E0F9013197F1F7019732
:10058000D9F787E089B91092900086E080939500B2
:1005900088E98AB90E941702789458EBE52EF12C6D
:1005A0000EE1B599B4C00E94CF0081E991E00E94AC
:1005B000E20061E082E00E94BD008EE991E00E94CD
:1005C000E20080E29EE4F7013197F1F70197D9F755
:1005D0000E94CF008DEA91E00E94E20061E082E09B
:1005E0000E94BD008CEB91E00E94E20080E29EE45C
:1005F000F7013197F1F70197D9F70E94CF008CEC02
:1006000091E00E94E20061E082E00E94BD00009360
:100610004E02CFE4D2E010E022C00E94CF018093CE
:100620004E028823E1F028EE33E0F7013197F1F72D
:1006300021503040D1F78883612F82E00E94BD00B5
:1006400080914E020E94D90088EE93E0F701319725
:10065000F1F70197D9F721961F5F113121F08091B1
:100660004E028332D1F6C0E0D0E001C02196FE01F7
:10067000E15BFD4F80818823C9F70E94CF008AED9E
:1006800091E00E94E20061E082E00E94BD008BEEFA
:1006900091E00E94E20020E030E0AE014150504085
:1006A00010C0F901E15BFD4FE0815D9BFECFECB92D
:1006B00080ED97E0F7013197F1F70197D9F72F5FB8
:1006C0003F4F241735076CF3E4EFF1E004C05D9B66
:1006D000FECF31968CB980818823C9F70E94CF0064
:1006E00086EF91E00E94E20080E197E2F701319706
:1006F000F1F70197D9F70E94CF00EC2FAFE4B2E0F9
:1007000080E002C01D928F5F8E17E0F34ACF809188
:1007100038028130F9F40E94B00180ED97E0F701D2
:100720003197F1F70197D9F790913902EAE3F2E0B6
:1007300080E002C011928F5F8917E0F388EE93E0AA
:10074000F7013197F1F70197D9F71092390210921A
:10075000380227CF82E092E00E94E20061E082E06E
:100760000E94BD0083E192E00E94E2001ACF1F9236
:100770000F920FB60F920BB60F9211248F939F9387
:10078000EF93FF93909139025F9BFECF8CB1E92FDD
:10079000F0E0E65CFD4F8083E92FEF5FE0933902E4
:1007A000F0E0E65CFD4F8081882319F481E08093BE
:1007B0003802FF91EF919F918F910F900BBE0F9098
:1007C0000FBE0F901F901895F8940C94F303991B8B
:1007D00079E004C0991F961708F0961B881F7A9538
:0A07E000C9F780950895F894FFCF43
:1007EA00454345203431312050726F6A6563740085
:1007FA004E68616E204E6F692044756E673A20001C
:10080A004D4F4445204655310041542B4655310D34
:10081A00004348414E4E454C203130320041542B62
:10082A00433130320D004144445245535320313252
:10083A00330041542B413132330D00424155445269
:10084A004154452035373630300041542B42353734
:10085A003630300D004F4B212E2E2E004E686F6D14
:10086A002034004D6F64756C65204343313130315B
:10087A0000477569206E6F692064756E67002D2DBB
:10088A002D5354415254494E472D2D2D0043686F24
:10089A006E20786F6E67206E68616E006E757420C8
:1008AA002320646520677569206469004E6F69209A
:1008BA0064756E67206775693A0042616E206461EB
:1008CA00206E68617020786F6E670044616E6720E1
:1008DA00677569000D0044612067756920786F6E3D
:1008EA0067004E68616E2055736572204275747494
:1008FA006F6E00446520677569206E6F69206475A4
:10090A006E67000E0D0B07313233413435364237EC
:08091A003839432A3023440060
:00000001FF
